S00F00005250495F6865782E7372656386
S113000071C0000081C000007FC000007DC00000FE
S11300107BC0000053C100002CC1000075C000006B
S113002073C0000071C000006FC000006DC000000C
S11300306BC0000069C0000067C0000065C000001C
S113004063C0000061C000005FC000005DC000002C
S11300505BC0000059C0000057C0000055C000003C
S113006053C0000051C000004FC000004DC000004C
S11300704BC0000049C0000047C0000045C000005C
S113008043C0000041C000003FC000003DC000006C
S11300903BC0000039C0000037C0000035C000007C
S11300A033C0000031C000002FC000002DC000008C
S11300B02BC0000029C0000027C0000025C000009C
S11300C023C0000021C000001FC0000011C20000B6
S11300D01BC0000019C0000017C0000015C00000BC
S11300E013C0000011241FBECFEFD1E2DEBFCDBF8D
S11300F000E00CBF22E0A0E0B2E001C01D92A235F6
S1130100B207E1F70BD494C57BCF3B9A439808958B
S113011081B18F6081B982B1807F82B9EAE0F1E078
S1130120808188618083EBE0F1E080818861808355
S113013008956C98749A08956D98759A089510BAF4
S113014011BA10920701109208010895259A2D9A68
S11301500895269A2E9A0895279A2F9A08958FEF34
S11301608093040110920501089584B1876084B9D5
S113017085B1876085B90895CBDFC7DFDADFDCDFBF
S1130180DEDFE4DFE6DFE8DFEADFEFCF0895E1ED6D
S1130190F0E010821092D00086E08093D2008FE5C8
S11301A08093D4001092D50088E980830895EAE70B
S11301B0F0E0108210927B0080E280937C0080E863
S11301C080BF86E880830895E1E2F1E010828FEF3A
S11301D08093250191E0909324011092290180934A
S11301E0280110922B0180932A0110922D018093F3
S11301F02C0189EA809320018BE080830895E1E853
S1130200F0E010828CEF8093850081E0809384007D
S113021093E0909389008FEF8093880090938B00F4
S113022080938A0090938D0080938C009093870034
S1130230809386008BEA80938000109282008CE089
S113024080830895F894EAE6F0E0808182608083F8
S1130250EC9A78940895F894EAE6F0E08081886056
S11302608083ED9A7894089583E58CBD1DBC1EBCF3
S113027008951F920F920FB60F9211248F939F939C
S1130280AF93BF938091000290910102A09102026A
S1130290B09103020196A11DB11D809300029093B9
S11302A00102A0930202B0930302BF91AF919F9108
S11302B08F910F900FBE0F901F9018951F920F9261
S11302C00FB60F9211248F939F93AF93BF93809196
S11302D0040290910502A0910602B09107020196D2
S11302E0A11DB11D8093040290930502A093060200
S11302F0B0930702BF91AF919F918F910F900FBE62
S11303000F901F901895F89437DF41DF50DF5CDFC2
S113031099DFA1DF74DFA8DF78940895883018F09E
S113032098E090937B008770806280937C001092A9
S11303304A02EAE7F0E0808180648083808184FF60
S1130340FDCF80917900EAE7F0E09081906190839D
S113035010927B000895413039F496E092B980936D
S1130360280160932A010895423039F49AE092B941
S11303708093280160932A010895433039F495E06D
S113038092B98093280160932A010895443039F486
S113039099E092B98093280160932A01089512B8D4
S11303A00895EBE0F1E08081826180830895439AAF
S11303B0089543980895BC0180E090E0ABD325EE06
S11303C030ED4AEA50E412D379D3AB01BC01109268
S11303D00002109201021092020210920302809114
S11303E0000290910102A0910202B0910302481709
S11303F059076A077B0798F712B8089526E022B9CF
S1130400DACF089529E022B9D6CF08951092890051
S1130410682F70E080E090E07DD32BE734E14EEE6E
S11304205FE3E4D220E030E04CE052E47BD246D3F8
S113043060938800089510928B00682F70E080E02C
S113044090E068D32BE734E14EEE5FE3CFD220E0B7
S113045030E04CE052E466D231D360938A000895D0
S113046010928D00682F70E080E090E053D32BE76A
S113047034E14EEE5FE3BAD220E030E04CE052E4E7
S113048051D21CD360938C00089583E0809389003B
S11304908FEF80938800089583E080938B008FEF23
S11304A080938A00089583E080938D008FEF80937A
S11304B08C000895E5E0F1E09081892B8083089514
S11304C0E5E0F1E0908189238083089528988EBD2A
S11304D00DB407FEFDCF86E69EE00197F1F700001C
S11304E080E58EBD0DB407FEFDCF8EB5289A089524
S11304F01F920F920FB60F9211240BB60F922F93E7
S11305003F938F939F93AF93BF93EF93FF939091F8
S1130510D60090934902E0EDF0E080818823E9F36E
S113052080911302811146C09A3071F480911502B2
S1130530E82FF0E0E05DFD4F90838F5F809315021C
S113054081E08093160236C080911602813041F515
S11305509D3081F520911502E22FF0E0E05DFD4F22
S11305608DE0808391E0920F9093150282E0809356
S1130570160281E080931302109214029923D1F0A1
S1130580A7E1B2E0E0E3F2E030E02F5C3D4F808190
S11305908D931192E217F307D1F7909314020AC0D6
S11305A080911502E82FF0E0E05DFD4F90838F5FAE
S11305B080931502FF91EF91BF91AF919F918F911D
S11305C03F912F910F900BBE0F900FBE0F901F9075
S11305D018958091110281115CC080910F028111E4
S11305E004C09CDE8093D60054C0813021F496DE92
S11305F08093D6004EC0823021F490DE8093D600E2
S113060048C0833021F48ADE8093D60042C084300F
S113061021F484DE8093D6003CC0853021F47EDE54
S11306208093D60036C0863021F478DE8093D600DD
S113063030C0873021F472DE8093D6002AC088301F
S113064021F46CDE8093D60024C0893021F466DE68
S11306508093D6001EC08A3021F460DE8093D600D9
S113066018C08B3021F45ADE8093D60012C08C302F
S113067021F454DE8093D6000CC08D3021F44EDE7C
S11306808093D60006C08E3009F038C047DE8093D0
S1130690D60080911102813089F580910F02811179
S11306A004C014DF8093D6000895813021F40EDF56
S11306B08093D6000895823021F408DF8093D60019
S11306C00895833021F402DF8093D60008958430A6
S11306D021F4FCDE8093D6000895853021F4F6DE03
S11306E08093D6000895863021F4F0DE8093D600FE
S11306F00895873019F4EADE8093D6000895809136
S11307001102813051F480910F02811102C04FDE39
S113071004C0813009F046C04CDE80911102823061
S113072059F580910F02811104C03BDE86E082B945
S113073023C0813021F435DE89E082B91DC08230C6
S113074021F42FDE8AE082B917C0833021F429DE38
S113075085E082B911C0843019F423DE12B80CC0CC
S1130760893009F047C086E082B94091080260915F
S11307700A0280910C02EFDD80911102833091F422
S113078080910F02811149C080910C0290910D0259
S113079035DE80910F02813029F480910C02909112
S11307A00D0230DE80911102843021F580910F0218
S11307B0811103C080910C0229DE80910F028130E7
S11307C019F480910C0237DE80910F02823019F403
S11307D080910C0245DE80910F02833009F455DECE
S11307E080910F02843009F457DE80910F02853026
S11307F009F459DE80911102853091F480910F0241
S1130800811103C080910C0255DE80910F0281306A
S113081039F480910C0254CE0895813009F4BDCF8F
S1130820089580911202813009F05BC0E7E1F2E0A3
S11308308081809311028181809310028281809350
S11308400F02838180930E02982F907190934E0231
S11308508F7080935002992381F024812093510258
S1130860858180934D0290E0982F8827820F911DF7
S113087090930D0280930C0231C0823061F083307A
S1130880C9F0813059F580911B0290E090930D02DC
S113089080930C0223C0E7E1F2E0848190E090931E
S11308A00D0280930C02858190E090930B0280935B
S11308B00A0214C0E7E1F2E0848190E090930D0213
S11308C080930C02858190E090930B0280930A023E
S11308D0868190E09093090280930802109212029C
S11308E002C081110AC080911002811104C071CE2E
S11308F0089505CF08958130E1F30895809113029E
S1130900813059F4109215021092140210921302BD
S1130910109216028093120284CF0895F4DCEEDF65
S1130920FECF5058BB27AA270ED048C139D130F08A
S11309303ED120F031F49F3F11F41EF42EC10EF489
S1130940E095E7FB24C1E92F4AD180F3BA17620787
S113095073078407950718F071F49EF562C10EF4CD
S1130960E0950B2EBA2FA02D0B01B90190010C01BB
S1130970CA01A0011124FF27591B99F0593F50F4D3
S1130980503E68F11A16F040A22F232F342F44272B
S1130990585FF3CF469537952795A795F040539523
S11309A0C9F77EF41F16BA0B620B730B840BBAF0F3
S11309B09150A1F0FF0FBB1F661F771F881FC2F75E
S11309C00EC0BA0F621F731F841F48F48795779572
S11309D06795B795F7959E3F08F0B3CF9395880F29
S11309E008F09927EE0F9795879508950CD0E6C0E7
S11309F0DED040F0D5D030F021F45F3F19F0C7C00D
S1130A00511110C1CAC0EBD098F39923C9F35523EF
S1130A10B1F3951B550BBB27AA27621773078407ED
S1130A2038F09F5F5F4F220F331F441FAA1FA9F3A3
S1130A3033D00E2E3AF0E0E830D091505040E69595
S1130A40001CCAF729D0FE2F27D0660F771F881FF6
S1130A50BB1F261737074807AB07B0E809F0BB0BE5
S1130A60802DBF01FF2793585F4F2AF09E3F510509
S1130A7068F08DC0D7C05F3FECF3983EDCF38695F9
S1130A8077956795B795F7959F5FC9F7880F911D7F
S1130A909695879597F90895E1E0660F771F881F6B
S1130AA0BB1F621773078407BA0720F0621B730B1E
S1130AB0840BBA0BEE1F88F7E095089598D088F060
S1130AC09F5790F0B92F9927B751A0F0D1F0660F36
S1130AD0771F881F991F1AF0BA95C9F712C0B13051
S1130AE081F09FD0B1E008959CC0672F782F8827AC
S1130AF0B85F39F0B93FCCF3869577956795B39590
S1130B00D9F73EF490958095709561957F4F8F4FFE
S1130B109F4F0895E89409C097FB3EF49095809503
S1130B20709561957F4F8F4F9F4F9923A9F0F92FAF
S1130B3096E9BB279395F695879577956795B7952D
S1130B40F111F8CFFAF4BB0F11F460FF1BC06F5F13
S1130B507F4F8F4F9F4F16C0882311F096E911C025
S1130B60772321F09EE8872F762F05C0662371F046
S1130B7096E8862F70E060E02AF09A95660F771F5A
S1130B80881FDAF7880F9695879597F9089597F94E
S1130B909F6780E870E060E008959FEF80EC08951F
S1130BA000240A9416161706180609060895002448
S1130BB00A9412161306140605060895092E0394C2
S1130BC0000C11F4882352F0BB0F40F4BF2B11F436
S1130BD060FF04C06F5F7F4F8F4F9F4F089557FD95
S1130BE09058440F551F59F05F3F71F04795880F97
S1130BF097FB991F61F09F3F79F08795089512162E
S1130C0013061406551FF2CF4695F1DF08C01616D9
S1130C1017061806991FF1CF86957105610508948A
S1130C200895E894BB2766277727CB0197F90895A1
S1070C30F894FFCF62
S9030000FC
